{
  "_format": "hh3-artifact-1",
  "contractName": "SmartWallet",
  "sourceName": "contracts/SmartWallet.sol",
  "abi": [
    {
      "inputs": [
        {
          "internalType": "address",
          "name": "_owner",
          "type": "address"
        },
        {
          "internalType": "address",
          "name": "_entryPoint",
          "type": "address"
        }
      ],
      "stateMutability": "nonpayable",
      "type": "constructor"
    },
    {
      "anonymous": false,
      "inputs": [
        {
          "indexed": false,
          "internalType": "address",
          "name": "to",
          "type": "address"
        },
        {
          "indexed": false,
          "internalType": "uint256",
          "name": "value",
          "type": "uint256"
        }
      ],
      "name": "Executed",
      "type": "event"
    },
    {
      "inputs": [],
      "name": "entryPoint",
      "outputs": [
        {
          "internalType": "address",
          "name": "",
          "type": "address"
        }
      ],
      "stateMutability": "view",
      "type": "function"
    },
    {
      "inputs": [
        {
          "internalType": "address",
          "name": "to",
          "type": "address"
        },
        {
          "internalType": "uint256",
          "name": "value",
          "type": "uint256"
        },
        {
          "internalType": "bytes",
          "name": "data",
          "type": "bytes"
        }
      ],
      "name": "execute",
      "outputs": [],
      "stateMutability": "nonpayable",
      "type": "function"
    },
    {
      "inputs": [],
      "name": "nonce",
      "outputs": [
        {
          "internalType": "uint256",
          "name": "",
          "type": "uint256"
        }
      ],
      "stateMutability": "view",
      "type": "function"
    },
    {
      "inputs": [],
      "name": "owner",
      "outputs": [
        {
          "internalType": "address",
          "name": "",
          "type": "address"
        }
      ],
      "stateMutability": "view",
      "type": "function"
    },
    {
      "inputs": [
        {
          "components": [
            {
              "internalType": "address",
              "name": "sender",
              "type": "address"
            },
            {
              "internalType": "uint256",
              "name": "nonce",
              "type": "uint256"
            },
            {
              "internalType": "bytes",
              "name": "initCode",
              "type": "bytes"
            },
            {
              "internalType": "bytes",
              "name": "callData",
              "type": "bytes"
            },
            {
              "internalType": "uint256",
              "name": "callGasLimit",
              "type": "uint256"
            },
            {
              "internalType": "uint256",
              "name": "verificationGasLimit",
              "type": "uint256"
            },
            {
              "internalType": "uint256",
              "name": "preVerificationGas",
              "type": "uint256"
            },
            {
              "internalType": "uint256",
              "name": "maxFeePerGas",
              "type": "uint256"
            },
            {
              "internalType": "uint256",
              "name": "maxPriorityFeePerGas",
              "type": "uint256"
            },
            {
              "internalType": "bytes",
              "name": "paymasterAndData",
              "type": "bytes"
            },
            {
              "internalType": "bytes",
              "name": "signature",
              "type": "bytes"
            }
          ],
          "internalType": "struct SmartWallet.UserOperation",
          "name": "userOp",
          "type": "tuple"
        },
        {
          "internalType": "bytes32",
          "name": "userOpHash",
          "type": "bytes32"
        },
        {
          "internalType": "uint256",
          "name": "missingAccountFunds",
          "type": "uint256"
        }
      ],
      "name": "validateUserOp",
      "outputs": [
        {
          "internalType": "uint256",
          "name": "validationData",
          "type": "uint256"
        }
      ],
      "stateMutability": "nonpayable",
      "type": "function"
    },
    {
      "stateMutability": "payable",
      "type": "receive"
    }
  ],
  "bytecode": "0x6080604052348015600e575f5ffd5b50604051610831380380610831833981016040819052602b916074565b5f80546001600160a01b039384166001600160a01b0319918216179091556001805492909316911617905560a0565b80516001600160a01b0381168114606f575f5ffd5b919050565b5f5f604083850312156084575f5ffd5b608b83605a565b9150609760208401605a565b90509250929050565b610784806100ad5f395ff3fe60806040526004361061004c575f3560e01c80633a871cdd146100575780638da5cb5b14610089578063affed0e0146100bf578063b0d691fe146100d4578063b61d27f6146100f3575f5ffd5b3661005357005b5f5ffd5b348015610062575f5ffd5b5061007661007136600461059c565b610114565b6040519081526020015b60405180910390f35b348015610094575f5ffd5b505f546100a7906001600160a01b031681565b6040516001600160a01b039091168152602001610080565b3480156100ca575f5ffd5b5061007660025481565b3480156100df575f5ffd5b506001546100a7906001600160a01b031681565b3480156100fe575f5ffd5b5061011261010d366004610606565b610358565b005b6001545f906001600160a01b031633146101495760405162461bcd60e51b815260040161014090610689565b60405180910390fd5b6001546001600160a01b031633146101735760405162461bcd60e51b815260040161014090610689565b3061018160208601866106b1565b6001600160a01b0316146101c85760405162461bcd60e51b815260206004820152600e60248201526d24b73b30b634b21039b2b73232b960911b6044820152606401610140565b60025484602001351461020d5760405162461bcd60e51b815260206004820152600d60248201526c496e76616c6964206e6f6e636560981b6044820152606401610140565b5f610259846102206101408801886106d1565b8080601f0160208091040260200160405190810160405280939291908181526020018383808284375f920191909152506104b192505050565b5f549091506001600160a01b038083169116146102ac5760405162461bcd60e51b8152602060048201526011602482015270496e76616c6964207369676e617475726560781b6044820152606401610140565b60028054905f6102bb8361071b565b9091555050821561034e576040515f90339085908381818185875af1925050503d805f8114610305576040519150601f19603f3d011682016040523d82523d5f602084013e61030a565b606091505b505090508061034c5760405162461bcd60e51b815260206004820152600e60248201526d141c99599d5b990819985a5b195960921b6044820152606401610140565b505b505f949350505050565b6001546001600160a01b031633146103825760405162461bcd60e51b815260040161014090610689565b6001600160a01b0384166103c95760405162461bcd60e51b815260206004820152600e60248201526d125b9d985b1a59081d185c99d95d60921b6044820152606401610140565b5f846001600160a01b03168484846040516103e592919061073f565b5f6040518083038185875af1925050503d805f811461041f576040519150601f19603f3d011682016040523d82523d5f602084013e610424565b606091505b50509050806104685760405162461bcd60e51b815260206004820152601060248201526f115e1958dd5d1a5bdb8819985a5b195960821b6044820152606401610140565b604080516001600160a01b0387168152602081018690527f6f6c6d78a4851d4c222c8404fc92372ee84b7b81054305ae8ea3c83c2dabd42e910160405180910390a15050505050565b5f5f5f5f6104be8561052b565b604080515f8152602081018083528b905260ff8316918101919091526060810184905260808101839052929550909350915060019060a0016020604051602081039080840390855afa158015610516573d5f5f3e3d5ffd5b5050604051601f190151979650505050505050565b5f5f5f835160411461057f5760405162461bcd60e51b815260206004820152601860248201527f496e76616c6964207369676e6174757265206c656e67746800000000000000006044820152606401610140565b5050506020810151604082015160609092015190925f9190911a90565b5f5f5f606084860312156105ae575f5ffd5b833567ffffffffffffffff8111156105c4575f5ffd5b840161016081870312156105d6575f5ffd5b95602085013595506040909401359392505050565b80356001600160a01b0381168114610601575f5ffd5b919050565b5f5f5f5f60608587031215610619575f5ffd5b610622856105eb565b935060208501359250604085013567ffffffffffffffff811115610644575f5ffd5b8501601f81018713610654575f5ffd5b803567ffffffffffffffff81111561066a575f5ffd5b87602082840101111561067b575f5ffd5b949793965060200194505050565b6020808252600e908201526d139bdd08115b9d1c9e541bda5b9d60921b604082015260600190565b5f602082840312156106c1575f5ffd5b6106ca826105eb565b9392505050565b5f5f8335601e198436030181126106e6575f5ffd5b83018035915067ffffffffffffffff821115610700575f5ffd5b602001915036819003821315610714575f5ffd5b9250929050565b5f6001820161073857634e487b7160e01b5f52601160045260245ffd5b5060010190565b818382375f910190815291905056fea2646970667358221220739d294292746b7833ed9f1a3fb3d8ccffd344c71eca78a470fa60f0d442e19b64736f6c634300081c0033",
  "linkReferences": {},
  "deployedLinkReferences": {},
  "immutableReferences": {},
  "inputSourceName": "project/contracts/SmartWallet.sol",
  "buildInfoId": "solc-0_8_28-bf5c3d91a7f70899d7a1a3a25cb61e304617f0da"
}