{
  "_format": "hh3-artifact-1",
  "contractName": "VerifyingPaymaster",
  "sourceName": "contracts/Paymaster.sol",
  "abi": [
    {
      "inputs": [
        {
          "internalType": "address",
          "name": "_entryPoint",
          "type": "address"
        },
        {
          "internalType": "address",
          "name": "_signer",
          "type": "address"
        }
      ],
      "stateMutability": "nonpayable",
      "type": "constructor"
    },
    {
      "inputs": [
        {
          "components": [
            {
              "internalType": "address",
              "name": "sender",
              "type": "address"
            },
            {
              "internalType": "uint256",
              "name": "nonce",
              "type": "uint256"
            },
            {
              "internalType": "bytes",
              "name": "initCode",
              "type": "bytes"
            },
            {
              "internalType": "bytes",
              "name": "callData",
              "type": "bytes"
            },
            {
              "internalType": "uint256",
              "name": "callGasLimit",
              "type": "uint256"
            },
            {
              "internalType": "uint256",
              "name": "verificationGasLimit",
              "type": "uint256"
            },
            {
              "internalType": "uint256",
              "name": "preVerificationGas",
              "type": "uint256"
            },
            {
              "internalType": "uint256",
              "name": "maxFeePerGas",
              "type": "uint256"
            },
            {
              "internalType": "uint256",
              "name": "maxPriorityFeePerGas",
              "type": "uint256"
            },
            {
              "internalType": "bytes",
              "name": "paymasterAndData",
              "type": "bytes"
            },
            {
              "internalType": "bytes",
              "name": "signature",
              "type": "bytes"
            }
          ],
          "internalType": "struct VerifyingPaymaster.UserOperation",
          "name": "userOp",
          "type": "tuple"
        }
      ],
      "name": "computeHash",
      "outputs": [
        {
          "internalType": "bytes32",
          "name": "rawHash",
          "type": "bytes32"
        },
        {
          "internalType": "bytes32",
          "name": "finalHash",
          "type": "bytes32"
        }
      ],
      "stateMutability": "view",
      "type": "function"
    },
    {
      "inputs": [],
      "name": "deposit",
      "outputs": [],
      "stateMutability": "payable",
      "type": "function"
    },
    {
      "inputs": [],
      "name": "entryPoint",
      "outputs": [
        {
          "internalType": "address",
          "name": "",
          "type": "address"
        }
      ],
      "stateMutability": "view",
      "type": "function"
    },
    {
      "inputs": [
        {
          "internalType": "uint8",
          "name": "",
          "type": "uint8"
        },
        {
          "internalType": "bytes",
          "name": "",
          "type": "bytes"
        },
        {
          "internalType": "uint256",
          "name": "",
          "type": "uint256"
        }
      ],
      "name": "postOp",
      "outputs": [],
      "stateMutability": "nonpayable",
      "type": "function"
    },
    {
      "inputs": [
        {
          "components": [
            {
              "internalType": "address",
              "name": "sender",
              "type": "address"
            },
            {
              "internalType": "uint256",
              "name": "nonce",
              "type": "uint256"
            },
            {
              "internalType": "bytes",
              "name": "initCode",
              "type": "bytes"
            },
            {
              "internalType": "bytes",
              "name": "callData",
              "type": "bytes"
            },
            {
              "internalType": "uint256",
              "name": "callGasLimit",
              "type": "uint256"
            },
            {
              "internalType": "uint256",
              "name": "verificationGasLimit",
              "type": "uint256"
            },
            {
              "internalType": "uint256",
              "name": "preVerificationGas",
              "type": "uint256"
            },
            {
              "internalType": "uint256",
              "name": "maxFeePerGas",
              "type": "uint256"
            },
            {
              "internalType": "uint256",
              "name": "maxPriorityFeePerGas",
              "type": "uint256"
            },
            {
              "internalType": "bytes",
              "name": "paymasterAndData",
              "type": "bytes"
            },
            {
              "internalType": "bytes",
              "name": "signature",
              "type": "bytes"
            }
          ],
          "internalType": "struct VerifyingPaymaster.UserOperation",
          "name": "userOp",
          "type": "tuple"
        },
        {
          "internalType": "bytes32",
          "name": "userOpHash",
          "type": "bytes32"
        },
        {
          "internalType": "uint256",
          "name": "",
          "type": "uint256"
        }
      ],
      "name": "validatePaymasterUserOp",
      "outputs": [
        {
          "internalType": "bytes",
          "name": "context",
          "type": "bytes"
        },
        {
          "internalType": "uint256",
          "name": "validationData",
          "type": "uint256"
        }
      ],
      "stateMutability": "nonpayable",
      "type": "function"
    },
    {
      "inputs": [],
      "name": "verifyingSigner",
      "outputs": [
        {
          "internalType": "address",
          "name": "",
          "type": "address"
        }
      ],
      "stateMutability": "view",
      "type": "function"
    }
  ],
  "bytecode": "0x60a060405234801561000f575f5ffd5b50604051610aac380380610aac83398101604081905261002e91610070565b6001600160a01b039182166080525f80546001600160a01b031916919092161790556100a1565b80516001600160a01b038116811461006b575f5ffd5b919050565b5f5f60408385031215610081575f5ffd5b61008a83610055565b915061009860208401610055565b90509250929050565b6080516109df6100cd5f395f818160c50152818161015b015281816102c4015261033601526109df5ff3fe608060405260043610610054575f3560e01c806323d9ac9b14610058578063a9a2340914610093578063b0d691fe146100b4578063ca4efaf7146100e7578063d0e30db01461011b578063f465c77e14610123575b5f5ffd5b348015610063575f5ffd5b505f54610076906001600160a01b031681565b6040516001600160a01b0390911681526020015b60405180910390f35b34801561009e575f5ffd5b506100b26100ad36600461073b565b610150565b005b3480156100bf575f5ffd5b506100767f000000000000000000000000000000000000000000000000000000000000000081565b3480156100f2575f5ffd5b506101066101013660046107de565b6101c4565b6040805192835260208301919091520161008a565b6100b26102af565b34801561012e575f5ffd5b5061014261013d366004610818565b610328565b60405161008a929190610862565b336001600160a01b037f000000000000000000000000000000000000000000000000000000000000000016146101be5760405162461bcd60e51b815260206004820152600e60248201526d139bdd08115b9d1c9e541bda5b9d60921b60448201526064015b60405180910390fd5b50505050565b5f806101d3602084018461089e565b60208401356101e560408601866108cb565b6040516101f3929190610915565b60405190819003902061020960608701876108cb565b604051610217929190610915565b6040519081900381206102459493929160808901359060a08a01359060c08b01359030904690602001610924565b60408051601f198184030181529082905280516020918201207f19457468657265756d205369676e6564204d6573736167653a0a33320000000091830191909152603c82018190529250605c01604051602081830303815290604052805190602001209050915091565b60405163b760faf960e01b81523060048201527f00000000000000000000000000000000000000000000000000000000000000006001600160a01b03169063b760faf99034906024015f604051808303818588803b15801561030f575f5ffd5b505af1158015610321573d5f5f3e3d5ffd5b5050505050565b60605f336001600160a01b037f000000000000000000000000000000000000000000000000000000000000000016146103945760405162461bcd60e51b815260206004820152600e60248201526d139bdd08115b9d1c9e541bda5b9d60921b60448201526064016101b5565b6103a26101208601866108cb565b90506055146103f35760405162461bcd60e51b815260206004820152601d60248201527f77726f6e67207061796d6173746572416e6444617461206c656e67746800000060448201526064016101b5565b60146104036101208701876108cb565b9050101561043f5760405162461bcd60e51b81526020600482015260096024820152681d1bdbc81cda1bdc9d60ba1b60448201526064016101b5565b5f61044e6101208701876108cb565b61045c916014908290610982565b8080601f0160208091040260200160405190810160405280939291908181526020018383808284375f9201919091525050825192935050604190911490506104d95760405162461bcd60e51b815260206004820152601060248201526f0eee4dedcce40e6d2ce40d8cadccee8d60831b60448201526064016101b5565b5f6104e7602088018861089e565b60208801356104f960408a018a6108cb565b604051610507929190610915565b60405190819003902061051d60608b018b6108cb565b60405161052b929190610915565b6040519081900381206105599493929160808d01359060a08e01359060c08f01359030904690602001610924565b6040516020818303038152906040528051906020012090505f816040516020016105af91907f19457468657265756d205369676e6564204d6573736167653a0a3332000000008152601c810191909152603c0190565b6040516020818303038152906040528051906020012090505f6105d28285610650565b5f549091506001600160a01b038083169116146106315760405162461bcd60e51b815260206004820152601b60248201527f496e76616c6964207061796d6173746572207369676e6174757265000000000060448201526064016101b5565b505060408051602081019091525f808252909890975095505050505050565b5f5f5f5f61065d856106ca565b604080515f8152602081018083528b905260ff8316918101919091526060810184905260808101839052929550909350915060019060a0016020604051602081039080840390855afa1580156106b5573d5f5f3e3d5ffd5b5050604051601f190151979650505050505050565b5f5f5f835160411461071e5760405162461bcd60e51b815260206004820152601860248201527f496e76616c6964207369676e6174757265206c656e677468000000000000000060448201526064016101b5565b5050506020810151604082015160609092015190925f9190911a90565b5f5f5f5f6060858703121561074e575f5ffd5b843560ff8116811461075e575f5ffd5b9350602085013567ffffffffffffffff811115610779575f5ffd5b8501601f81018713610789575f5ffd5b803567ffffffffffffffff81111561079f575f5ffd5b8760208284010111156107b0575f5ffd5b949760209190910196509394604001359392505050565b5f61016082840312156107d8575f5ffd5b50919050565b5f602082840312156107ee575f5ffd5b813567ffffffffffffffff811115610804575f5ffd5b610810848285016107c7565b949350505050565b5f5f5f6060848603121561082a575f5ffd5b833567ffffffffffffffff811115610840575f5ffd5b61084c868287016107c7565b9660208601359650604090950135949350505050565b604081525f83518060408401528060208601606085015e5f606082850101526060601f19601f8301168401019150508260208301529392505050565b5f602082840312156108ae575f5ffd5b81356001600160a01b03811681146108c4575f5ffd5b9392505050565b5f5f8335601e198436030181126108e0575f5ffd5b83018035915067ffffffffffffffff8211156108fa575f5ffd5b60200191503681900382131561090e575f5ffd5b9250929050565b818382375f9101908152919050565b6bffffffffffffffffffffffff1960609a8b1b811682526014820199909952603481019790975260548701959095526074860193909352609485019190915260b484015290931b90911660d482015260e88101919091526101080190565b5f5f85851115610990575f5ffd5b8386111561099c575f5ffd5b505082019391909203915056fea2646970667358221220f389ad190434472def0c63e95a3862d5ee1ecff6f160debfda6a3d9af4fb057164736f6c634300081c0033",
  "linkReferences": {},
  "deployedLinkReferences": {},
  "immutableReferences": {
    "9": [
      {
        "length": 32,
        "start": 197
      },
      {
        "length": 32,
        "start": 347
      },
      {
        "length": 32,
        "start": 708
      },
      {
        "length": 32,
        "start": 822
      }
    ]
  },
  "inputSourceName": "project/contracts/Paymaster.sol",
  "buildInfoId": "solc-0_8_28-6f751617f19dfed0ed9946dde7d6c864b870c852"
}