{
  "_format": "hh3-artifact-1",
  "contractName": "VerifyingPaymaster",
  "sourceName": "contracts/Paymaster.sol",
  "abi": [
    {
      "inputs": [
        {
          "internalType": "address",
          "name": "_entryPoint",
          "type": "address"
        },
        {
          "internalType": "address",
          "name": "_signer",
          "type": "address"
        }
      ],
      "stateMutability": "nonpayable",
      "type": "constructor"
    },
    {
      "inputs": [],
      "name": "deposit",
      "outputs": [],
      "stateMutability": "payable",
      "type": "function"
    },
    {
      "inputs": [],
      "name": "entryPoint",
      "outputs": [
        {
          "internalType": "address",
          "name": "",
          "type": "address"
        }
      ],
      "stateMutability": "view",
      "type": "function"
    },
    {
      "inputs": [
        {
          "internalType": "uint8",
          "name": "",
          "type": "uint8"
        },
        {
          "internalType": "bytes",
          "name": "",
          "type": "bytes"
        },
        {
          "internalType": "uint256",
          "name": "",
          "type": "uint256"
        }
      ],
      "name": "postOp",
      "outputs": [],
      "stateMutability": "nonpayable",
      "type": "function"
    },
    {
      "inputs": [
        {
          "components": [
            {
              "internalType": "address",
              "name": "sender",
              "type": "address"
            },
            {
              "internalType": "uint256",
              "name": "nonce",
              "type": "uint256"
            },
            {
              "internalType": "bytes",
              "name": "initCode",
              "type": "bytes"
            },
            {
              "internalType": "bytes",
              "name": "callData",
              "type": "bytes"
            },
            {
              "internalType": "uint256",
              "name": "callGasLimit",
              "type": "uint256"
            },
            {
              "internalType": "uint256",
              "name": "verificationGasLimit",
              "type": "uint256"
            },
            {
              "internalType": "uint256",
              "name": "preVerificationGas",
              "type": "uint256"
            },
            {
              "internalType": "uint256",
              "name": "maxFeePerGas",
              "type": "uint256"
            },
            {
              "internalType": "uint256",
              "name": "maxPriorityFeePerGas",
              "type": "uint256"
            },
            {
              "internalType": "bytes",
              "name": "paymasterAndData",
              "type": "bytes"
            },
            {
              "internalType": "bytes",
              "name": "signature",
              "type": "bytes"
            }
          ],
          "internalType": "struct VerifyingPaymaster.UserOperation",
          "name": "userOp",
          "type": "tuple"
        },
        {
          "internalType": "bytes32",
          "name": "userOpHash",
          "type": "bytes32"
        },
        {
          "internalType": "uint256",
          "name": "",
          "type": "uint256"
        }
      ],
      "name": "validatePaymasterUserOp",
      "outputs": [
        {
          "internalType": "bytes",
          "name": "context",
          "type": "bytes"
        },
        {
          "internalType": "uint256",
          "name": "validationData",
          "type": "uint256"
        }
      ],
      "stateMutability": "nonpayable",
      "type": "function"
    },
    {
      "inputs": [],
      "name": "verifyingSigner",
      "outputs": [
        {
          "internalType": "address",
          "name": "",
          "type": "address"
        }
      ],
      "stateMutability": "view",
      "type": "function"
    }
  ],
  "bytecode": "0x60a060405234801561000f575f5ffd5b5060405161070138038061070183398101604081905261002e91610070565b6001600160a01b039182166080525f80546001600160a01b031916919092161790556100a1565b80516001600160a01b038116811461006b575f5ffd5b919050565b5f5f60408385031215610081575f5ffd5b61008a83610055565b915061009860208401610055565b90509250929050565b6080516106346100cd5f395f818160ba0152818161011c0152818161019a015261020c01526106345ff3fe608060405260043610610049575f3560e01c806323d9ac9b1461004d578063a9a2340914610088578063b0d691fe146100a9578063d0e30db0146100dc578063f465c77e146100e4575b5f5ffd5b348015610058575f5ffd5b505f5461006b906001600160a01b031681565b6040516001600160a01b0390911681526020015b60405180910390f35b348015610093575f5ffd5b506100a76100a2366004610476565b610111565b005b3480156100b4575f5ffd5b5061006b7f000000000000000000000000000000000000000000000000000000000000000081565b6100a7610185565b3480156100ef575f5ffd5b506101036100fe366004610502565b6101fe565b60405161007f929190610551565b336001600160a01b037f0000000000000000000000000000000000000000000000000000000000000000161461017f5760405162461bcd60e51b815260206004820152600e60248201526d139bdd08115b9d1c9e541bda5b9d60921b60448201526064015b60405180910390fd5b50505050565b60405163b760faf960e01b81523060048201527f00000000000000000000000000000000000000000000000000000000000000006001600160a01b03169063b760faf99034906024015f604051808303818588803b1580156101e5575f5ffd5b505af11580156101f7573d5f5f3e3d5ffd5b5050505050565b60605f336001600160a01b037f0000000000000000000000000000000000000000000000000000000000000000161461026a5760405162461bcd60e51b815260206004820152600e60248201526d139bdd08115b9d1c9e541bda5b9d60921b6044820152606401610176565b5f61027961012087018761058d565b6102879160149082906105d7565b8080601f0160208091040260200160405190810160405280939291908181526020018383808284375f920182905250604051949550936102eb935089925030915060200191825260601b6bffffffffffffffffffffffff1916602082015260340190565b6040516020818303038152906040528051906020012090505f61030e828461038b565b5f549091506001600160a01b0380831691161461036d5760405162461bcd60e51b815260206004820152601b60248201527f496e76616c6964207061796d6173746572207369676e617475726500000000006044820152606401610176565b505060408051602081019091525f8082529097909650945050505050565b5f5f5f5f61039885610405565b604080515f8152602081018083528b905260ff8316918101919091526060810184905260808101839052929550909350915060019060a0016020604051602081039080840390855afa1580156103f0573d5f5f3e3d5ffd5b5050604051601f190151979650505050505050565b5f5f5f83516041146104595760405162461bcd60e51b815260206004820152601860248201527f496e76616c6964207369676e6174757265206c656e67746800000000000000006044820152606401610176565b5050506020810151604082015160609092015190925f9190911a90565b5f5f5f5f60608587031215610489575f5ffd5b843560ff81168114610499575f5ffd5b9350602085013567ffffffffffffffff8111156104b4575f5ffd5b8501601f810187136104c4575f5ffd5b803567ffffffffffffffff8111156104da575f5ffd5b8760208284010111156104eb575f5ffd5b949760209190910196509394604001359392505050565b5f5f5f60608486031215610514575f5ffd5b833567ffffffffffffffff81111561052a575f5ffd5b8401610160818703121561053c575f5ffd5b95602085013595506040909401359392505050565b604081525f83518060408401528060208601606085015e5f606082850101526060601f19601f8301168401019150508260208301529392505050565b5f5f8335601e198436030181126105a2575f5ffd5b83018035915067ffffffffffffffff8211156105bc575f5ffd5b6020019150368190038213156105d0575f5ffd5b9250929050565b5f5f858511156105e5575f5ffd5b838611156105f1575f5ffd5b505082019391909203915056fea2646970667358221220d5b919b08110b2a5e7f1f15f6b611af3069e34e4b139ddcbc56f5db1ee1ff0d264736f6c634300081c0033",
  "linkReferences": {},
  "deployedLinkReferences": {},
  "immutableReferences": {
    "9": [
      {
        "length": 32,
        "start": 186
      },
      {
        "length": 32,
        "start": 284
      },
      {
        "length": 32,
        "start": 410
      },
      {
        "length": 32,
        "start": 524
      }
    ]
  },
  "inputSourceName": "project/contracts/Paymaster.sol",
  "buildInfoId": "solc-0_8_28-7769d5afad941bf1ee54e27df829448f8515921b"
}