{
  "_format": "hh3-artifact-1",
  "contractName": "VerifyingPaymaster",
  "sourceName": "contracts/Paymaster.sol",
  "abi": [
    {
      "inputs": [
        {
          "internalType": "address",
          "name": "_entryPoint",
          "type": "address"
        },
        {
          "internalType": "address",
          "name": "_signer",
          "type": "address"
        }
      ],
      "stateMutability": "nonpayable",
      "type": "constructor"
    },
    {
      "inputs": [],
      "name": "deposit",
      "outputs": [],
      "stateMutability": "payable",
      "type": "function"
    },
    {
      "inputs": [],
      "name": "entryPoint",
      "outputs": [
        {
          "internalType": "address",
          "name": "",
          "type": "address"
        }
      ],
      "stateMutability": "view",
      "type": "function"
    },
    {
      "inputs": [
        {
          "internalType": "uint8",
          "name": "",
          "type": "uint8"
        },
        {
          "internalType": "bytes",
          "name": "",
          "type": "bytes"
        },
        {
          "internalType": "uint256",
          "name": "",
          "type": "uint256"
        },
        {
          "internalType": "uint256",
          "name": "",
          "type": "uint256"
        }
      ],
      "name": "postOp",
      "outputs": [],
      "stateMutability": "nonpayable",
      "type": "function"
    },
    {
      "inputs": [
        {
          "components": [
            {
              "internalType": "address",
              "name": "sender",
              "type": "address"
            },
            {
              "internalType": "uint256",
              "name": "nonce",
              "type": "uint256"
            },
            {
              "internalType": "bytes",
              "name": "initCode",
              "type": "bytes"
            },
            {
              "internalType": "bytes",
              "name": "callData",
              "type": "bytes"
            },
            {
              "internalType": "bytes32",
              "name": "accountGasLimits",
              "type": "bytes32"
            },
            {
              "internalType": "uint256",
              "name": "preVerificationGas",
              "type": "uint256"
            },
            {
              "internalType": "bytes32",
              "name": "gasFees",
              "type": "bytes32"
            },
            {
              "internalType": "bytes",
              "name": "paymasterAndData",
              "type": "bytes"
            },
            {
              "internalType": "bytes",
              "name": "signature",
              "type": "bytes"
            }
          ],
          "internalType": "struct VerifyingPaymaster.UserOperation",
          "name": "userOp",
          "type": "tuple"
        },
        {
          "internalType": "bytes32",
          "name": "userOpHash",
          "type": "bytes32"
        },
        {
          "internalType": "uint256",
          "name": "",
          "type": "uint256"
        }
      ],
      "name": "validatePaymasterUserOp",
      "outputs": [
        {
          "internalType": "bytes",
          "name": "context",
          "type": "bytes"
        },
        {
          "internalType": "uint256",
          "name": "validationData",
          "type": "uint256"
        }
      ],
      "stateMutability": "nonpayable",
      "type": "function"
    },
    {
      "inputs": [],
      "name": "verifyingSigner",
      "outputs": [
        {
          "internalType": "address",
          "name": "",
          "type": "address"
        }
      ],
      "stateMutability": "view",
      "type": "function"
    }
  ],
  "bytecode": "0x60a060405234801561000f575f5ffd5b5060405161071c38038061071c83398101604081905261002e91610070565b6001600160a01b039182166080525f80546001600160a01b031916919092161790556100a1565b80516001600160a01b038116811461006b575f5ffd5b919050565b5f5f60408385031215610081575f5ffd5b61008a83610055565b915061009860208401610055565b90509250929050565b60805161064f6100cd5f395f818160e70152818161011f0152818161038301526103fd015261064f5ff3fe608060405260043610610049575f3560e01c806323d9ac9b1461004d57806352b7512c146100885780637c627b21146100b5578063b0d691fe146100d6578063d0e30db014610109575b5f5ffd5b348015610058575f5ffd5b505f5461006b906001600160a01b031681565b6040516001600160a01b0390911681526020015b60405180910390f35b348015610093575f5ffd5b506100a76100a236600461045a565b610111565b60405161007f9291906104a9565b3480156100c0575f5ffd5b506100d46100cf3660046104e5565b610378565b005b3480156100e1575f5ffd5b5061006b7f000000000000000000000000000000000000000000000000000000000000000081565b6100d46103e8565b60605f336001600160a01b037f000000000000000000000000000000000000000000000000000000000000000016146101825760405162461bcd60e51b815260206004820152600e60248201526d139bdd08115b9d1c9e541bda5b9d60921b60448201526064015b60405180910390fd5b604161019160e087018761057b565b905010156101e15760405162461bcd60e51b815260206004820152601a60248201527f7061796d6173746572416e644461746120746f6f2073686f72740000000000006044820152606401610179565b604080516041808252608082019092525f916020820181803683370190505090505f604161021260e089018961057b565b61021d9291506105d9565b90505f5b604181101561028a5761023760e089018961057b565b61024183856105f2565b81811061025057610250610605565b9050013560f81c60f81b83828151811061026c5761026c610605565b60200101906001600160f81b03191690815f1a905350600101610221565b5060208281015160408085015160608087015183515f8082529681018086528d905290861a938101849052908101849052608081018290529293909260019060a0016020604051602081039080840390855afa1580156102ec573d5f5f3e3d5ffd5b5050604051601f1901515f549092506001600160a01b0380841691161490506103575760405162461bcd60e51b815260206004820152601b60248201527f496e76616c6964207061796d6173746572207369676e617475726500000000006044820152606401610179565b505060408051602081019091525f808252909a909950975050505050505050565b336001600160a01b037f000000000000000000000000000000000000000000000000000000000000000016146103e15760405162461bcd60e51b815260206004820152600e60248201526d139bdd08115b9d1c9e541bda5b9d60921b6044820152606401610179565b5050505050565b60405163b760faf960e01b81523060048201527f00000000000000000000000000000000000000000000000000000000000000006001600160a01b03169063b760faf99034906024015f604051808303818588803b158015610448575f5ffd5b505af11580156103e1573d5f5f3e3d5ffd5b5f5f5f6060848603121561046c575f5ffd5b833567ffffffffffffffff811115610482575f5ffd5b84016101208187031215610494575f5ffd5b95602085013595506040909401359392505050565b604081525f83518060408401528060208601606085015e5f606082850101526060601f19601f8301168401019150508260208301529392505050565b5f5f5f5f5f608086880312156104f9575f5ffd5b853560ff81168114610509575f5ffd5b9450602086013567ffffffffffffffff811115610524575f5ffd5b8601601f81018813610534575f5ffd5b803567ffffffffffffffff81111561054a575f5ffd5b88602082840101111561055b575f5ffd5b959860209190910197509495604081013595606090910135945092505050565b5f5f8335601e19843603018112610590575f5ffd5b83018035915067ffffffffffffffff8211156105aa575f5ffd5b6020019150368190038213156105be575f5ffd5b9250929050565b634e487b7160e01b5f52601160045260245ffd5b818103818111156105ec576105ec6105c5565b92915050565b808201808211156105ec576105ec6105c5565b634e487b7160e01b5f52603260045260245ffdfea2646970667358221220895683fa74094754505282047a851cd3067f45acc71295bf7b4836e622c463cc64736f6c634300081c0033",
  "linkReferences": {},
  "deployedLinkReferences": {},
  "immutableReferences": {
    "9": [
      {
        "length": 32,
        "start": 231
      },
      {
        "length": 32,
        "start": 287
      },
      {
        "length": 32,
        "start": 899
      },
      {
        "length": 32,
        "start": 1021
      }
    ]
  },
  "inputSourceName": "project/contracts/Paymaster.sol",
  "buildInfoId": "solc-0_8_28-1b0a88dd7eabc31568c1d78e548962888b08fb8e"
}